:020000040800F2
:1000000000500020393B0008FD110008FF110008D6
:100010000112000803120008051200080000000089
:1000200000000000000000000000000007120008AF
:1000300009120008000000000B1200080D12000851
:10004000813B0008813B0008813B0008813B0008A0
:10005000813B0008813B0008813B0008813B000890
:10006000813B0008813B0008813B0008813B000880
:10007000813B0008813B0008813B0008813B000870
:100080001512000825120008813B0008813B00087A
:10009000813B0008813B0008813B0008813B000850
:1000A000813B0008813B0008813B0008813B000840
:1000B00035120008813B0008813B0008813B0008A5
:1000C000813B0008813B0008813B0008813B000820
:1000D000813B0008813B000845120008813B000875
:1000E000813B0008813B0008813B000800000000C4
:1000F0000000000000000000000000000000000000
:0C01000000000000000000005FF808F1A3
:1001100010B5054C237833B9044B13B10448AFF341
:1001200000800123237010BDB809002000000000EA
:10013000889E000808B5034B1BB103490348AFF381
:10014000008008BD00000000BC090020889E000857
:10015000844641EA000313F0030349D1403A23D314
:100160000B6803604B6843608B688360CB68C36037
:100170000B6903614B6943618B698361CB69C3611F
:100180000B6A03624B6A43628B6A8362CB6AC36207
:100190000B6B03634B6B43638B6B8363CB6BC363EF
:1001A00040304031403ADBD230320BD30B68036031
:1001B0004B6843608B688360CB68C360103010313C
:1001C000103AF3D20C3205D351F8043B40F8043B0B
:1001D000043AF9D2043208D0D2071CBF11F8013B0F
:1001E00000F8013B01D30B8803806046704700BFD5
:1001F000082A13D38B07B1D010F00303AED0C3F19C
:100200000403D21ADB071CBF11F8013B00F8013BC5
:10021000A4D331F8023B20F8023B9FE7043AD9D33C
:10022000013A11F8013B00F8013BF9D20B78037059
:100230004B7843708B7883706046704781F0004143
:1002400002E000BF83F0004330B54FEA41044FEABB
:10025000430594EA050F08BF90EA020F1FBF54EA56
:10026000000C55EA020C7FEA645C7FEA655C00F0F2
:10027000E2804FEA5454D4EB5555B8BF6D420CDDC3
:100280002C4480EA020281EA030382EA000083EA46
:10029000010180EA020281EA0303362D88BF30BDE6
:1002A00011F0004F4FEA01314FF4801C4CEA11313C
:1002B00002D0404261EB410113F0004F4FEA03339B
:1002C0004CEA133302D0524263EB430394EA050F26
:1002D00000F0A780A4F10104D5F1200E0DDB02FA95
:1002E0000EFC22FA05F2801841F1000103FA0EF229
:1002F000801843FA05F359410EE0A5F120050EF1EF
:10030000200E012A03FA0EFC28BF4CF0020C43FA1F
:1003100005F3C01851EBE37101F0004507D54FF02C
:10032000000EDCF1000C7EEB00006EEB0101B1F57C
:10033000801F1BD3B1F5001F0CD349085FEA3000C2
:100340004FEA3C0C04F101044FEA445212F5800FCD
:1003500080F09A80BCF1004F08BF5FEA500C50F16A
:10036000000041EB045141EA050130BD5FEA4C0C4D
:10037000404141EB0101013C28BFB1F5801FE9D2AA
:1003800091F0000F04BF01460020B1FA81F308BFCD
:100390002033A3F10B03B3F120020CDA0C3208DD99
:1003A00002F1140CC2F10C0201FA0CF021FA02F174
:1003B0000CE002F11402D8BFC2F1200C01FA02F1E4
:1003C00020FA0CFCDCBF41EA0C019040E41AA2BF09
:1003D00001EB0451294330BD6FEA04041F3C1CDAD1
:1003E0000C340EDC04F11404C4F1200220FA04F0F1
:1003F00001FA02F340EA030021FA04F345EA03019B
:1004000030BDC4F10C04C4F1200220FA02F001FA5C
:1004100004F340EA0300294630BD21FA04F02946DE
:1004200030BD94F0000F83F4801306BF81F4801177
:100430000134013D4EE77FEA645C18BF7FEA655CEA
:1004400029D094EA050F08BF90EA020F05D054EABC
:10045000000C04BF1946104630BD91EA030F1EBFC1
:100460000021002030BD5FEA545C05D140004941C5
:1004700028BF41F0004130BD14F580043CBF01F5B8
:10048000801130BD01F0004545F0FE4141F470019E
:100490004FF0000030BD7FEA645C1ABF1946104679
:1004A0007FEA655C1CBF0B46024650EA013406BF7A
:1004B00052EA033591EA030F41F4002130BD00BF39
:1004C00090F0000F04BF0021704730B54FF48064F6
:1004D00004F132044FF000054FF0000150E700BF77
:1004E00090F0000F04BF0021704730B54FF48064D6
:1004F00004F1320410F0004548BF40424FF00001C3
:100500003EE700BF42004FEAE2014FEA31014FEA05
:1005100002701FBF12F07F4393F07F4F81F0605154
:10052000704732F07F4208BF704793F07F4F04BF9F
:1005300041F40021704730B54FF4607401F000457C
:1005400021F000411CE700BF50EA010208BF7047DC
:1005500030B54FF000050AE050EA010208BF7047CD
:1005600030B511F0004502D5404261EB41014FF436
:10057000806404F132045FEA915C3FF4D8AE4FF03E
:1005800003025FEADC0C18BF03325FEADC0C18BF21
:10059000033202EBDC02C2F1200300FA03FC20FA72
:1005A00002F001FA03FE40EA0E0021FA02F11444BF
:1005B000BDE600BF70B54FF0FF0C4CF4E06C1CEAD8
:1005C00011541DBF1CEA135594EA0C0F95EA0C0F49
:1005D00000F0DEF82C4481EA030621EA4C5123EABC
:1005E0004C5350EA013518BF52EA033541F48011EB
:1005F00043F4801338D0A0FB02CE4FF00005E1FB9E
:1006000002E506F00042E0FB03E54FF00006E1FBE7
:1006100003569CF0000F18BF4EF0010EA4F1FF042A
:10062000B6F5007F64F5407404D25FEA4E0E6D416A
:1006300046EB060642EAC62141EA55514FEAC5207B
:1006400040EA5E504FEACE2EB4F1FD0C88BFBCF5F7
:10065000E06F1ED8BEF1004F08BF5FEA500E50F1A8
:10066000000041EB045170BD06F0004646EA01016E
:1006700040EA020081EA0301B4EB5C04C2BFD4EBA0
:100680000C0541EA045170BD41F480114FF0000E99
:10069000013C00F3AB8014F1360FDEBF002001F007
:1006A000004170BDC4F10004203C35DA0C341BDC81
:1006B00004F11404C4F1200500FA05F320FA04F053
:1006C00001FA05F240EA020001F0004221F0004187
:1006D00010EBD37021FA04F642EB06015EEA430EFA
:1006E00008BF20EAD37070BDC4F10C04C4F120052A
:1006F00000FA04F320FA05F001FA04F240EA0200DD
:1007000001F0004110EBD37041F100015EEA430EAD
:1007100008BF20EAD37070BDC4F1200500FA05F2CD
:100720004EEA020E20FA04F301FA05F243EA02034C
:1007300021FA04F001F0004121FA04F220EA02005B
:1007400000EBD3705EEA430E08BF20EAD37070BDA1
:1007500094F0000F0FD101F00046400041EB010181
:1007600011F4801F08BF013CF7D041EA060195F063
:10077000000F18BF704703F00046520043EB03031D
:1007800013F4801F08BF013DF7D043EA060370470A
:1007900094EA0C0F0CEA135518BF95EA0C0F0CD015
:1007A00050EA410618BF52EA4306D1D181EA03015B
:1007B00001F000414FF0000070BD50EA410606BF55
:1007C0001046194652EA430619D094EA0C0F02D19A
:1007D00050EA013613D195EA0C0F05D152EA0336DF
:1007E0001CBF104619460AD181EA030101F00041FD
:1007F00041F0FE4141F470014FF0000070BD41F046
:10080000FE4141F4780170BD70B54FF0FF0C4CF41F
:10081000E06C1CEA11541DBF1CEA135594EA0C0F3E
:1008200095EA0C0F00F0A7F8A4EB050481EA030E8B
:1008300052EA03354FEA013100F088804FEA033372
:100840004FF0805545EA131343EA12634FEA022240
:1008500045EA111545EA10654FEA00260EF0004101
:100860009D4208BF964244F1FD0404F5407402D253
:100870005B084FEA3202B61A65EB03055B084FEAE4
:1008800032024FF480104FF4002CB6EB020E75EBE1
:10089000030E22BFB61A754640EA0C005B084FEA09
:1008A0003202B6EB020E75EB030E22BFB61A754686
:1008B00040EA5C005B084FEA3202B6EB020E75EBD1
:1008C000030E22BFB61A754640EA9C005B084FEA49
:1008D0003202B6EB020E75EB030E22BFB61A754656
:1008E00040EADC0055EA060E18D04FEA051545EA45
:1008F00016754FEA06164FEAC30343EA52734FEAEE
:10090000C2025FEA1C1CC0D111F4801F0BD141EA66
:1009100000014FF000004FF0004CB6E711F4801FCB
:1009200004BF01430020B4F1FD0C88BFBCF5E06FAB
:100930003FF6AFAEB5EB030C04BFB6EB020C5FEABB
:10094000500C50F1000041EB045170BD0EF0004E10
:100950004EEA113114EB5C04C2BFD4EB0C0541EA42
:10096000045170BD41F480114FF0000E013C90E63F
:1009700045EA060E8DE60CEA135594EA0C0F08BF03
:1009800095EA0C0F3FF43BAF94EA0C0F0AD150EA02
:1009900001347FF434AF95EA0C0F7FF425AF104695
:1009A00019462CE795EA0C0F06D152EA03353FF4BD
:1009B000FDAE1046194622E750EA410618BF52EA3A
:1009C00043067FF4C5AE50EA41047FF40DAF52EA0E
:1009D00043057FF4EBAE12E74FF0FF3C06E000BFAB
:1009E0004FF0010C02E000BF4FF0010C4DF804CDB8
:1009F0004FEA410C7FEA6C5C4FEA430C18BF7FEA78
:100A00006C5C1BD001B050EA410C0CBF52EA430CA5
:100A100091EA030F02BF90EA020F0020704710F125
:100A2000000F91EA030F58BF994208BF90422CBFB4
:100A3000D8176FEAE37040F0010070474FEA410CAD
:100A40007FEA6C5C02D150EA013C07D14FEA430CCB
:100A50007FEA6C5CD6D152EA033CD3D05DF8040B3C
:100A6000704700BF8446104662468C46194663466E
:100A700000E000BF01B5FFF7B7FF002848BF10F145
:100A8000000F01BD4DF808EDFFF7F4FF0CBF01208A
:100A900000205DF808FB00BF4DF808EDFFF7EAFF06
:100AA00034BF012000205DF808FB00BF4DF808EDC1
:100AB000FFF7E0FF94BF012000205DF808FB00BFB6
:100AC0004DF808EDFFF7CEFF94BF012000205DF840
:100AD00008FB00BF4DF808EDFFF7C4FF34BF01204D
:100AE00000205DF808FB00BF4FEA410C7FEA6C5C18
:100AF00002D150EA013C0AD14FEA430C7FEA6C5C18
:100B000002D152EA033C02D14FF0000070474FF08F
:100B1000010070474FEA410212F5001215D211D5BB
:100B20006FF47873B3EB625212D94FEAC12343F0EA
:100B3000004343EA505311F0004F23FA02F018BF6C
:100B4000404270474FF00000704750EA013005D135
:100B500011F0004008BF6FF0004070474FF00000F8
:100B6000704700BF53B94AB9002908BF00281CBF0D
:100B70004FF0FF314FF0FF3000F076B9ADF1080CC7
:100B80006DE904CE00F006F8DDF804E0DDE90223AB
:100B900004B070472DE9F047089E0D46044688468C
:100BA000002B4DD18A42944668D9B2FA82F252B1F2
:100BB00001FA02F3C2F1200120FA01F10CFA02FC61
:100BC00041EA030894404FEA1C41B8FBF1F71FFAD1
:100BD0008CFE01FB178807FB0EF0230C43EA084349
:100BE00098420AD91CEB030307F1FF3580F01E8100
:100BF000984240F21B81023F63441B1AB3FBF1F0A1
:100C000001FB103300FB0EFEA4B244EA0344A645E8
:100C10000AD91CEB040400F1FF3380F00981A645DA
:100C200040F20681644402380021A4EB0E0440EA3D
:100C300007401EB10023D440C6E90043BDE8F08759
:100C40008B4208D9002E00F0EE800021C6E9000595
:100C50000846BDE8F087B3FA83F100294AD1AB42D8
:100C600002D3824200F2FC80841A65EB0303012068
:100C70009846002EE2D0C6E90048DFE702B9FFDE61
:100C8000B2FA82F2002A40F09180A1EB0C0001211F
:100C90004FEA1C471FFA8CFEB0FBF7F307FB13006B
:100CA000250C45EA00450EFB03F0A84208D91CEBD1
:100CB000050503F1FF3802D2A84200F2CE80434678
:100CC0002D1AB5FBF7F007FB10550EFB00FEA4B282
:100CD00044EA0544A64508D91CEB040400F1FF359D
:100CE00002D2A64500F2B6802846A4EB0E0440EAE4
:100CF00003409EE7C1F120078B4022FA07FC4CEA33
:100D0000030C25FA07FA4FEA1C49BAFBF9F820FA56
:100D100007F309FB18AA8D401FFA8CFE1D4300FA49
:100D200001F308FB0EF02C0C44EA0A44A04202FA3C
:100D300001F20BD91CEB040408F1FF3A80F0888023
:100D4000A04240F28580A8F102086444241AB4FB52
:100D5000F9F009FB104400FB0EFEADB245EA044475
:100D6000A64508D91CEB040400F1FF356CD2A6455A
:100D70006AD90238644440EA0840A0FB0295A4EB1B
:100D80000E04AC42C846AE4656D353D0002E69D0AE
:100D9000B3EB080264EB0E0422FA01F304FA07F73E
:100DA0001F43CC40C6E90074002147E70CFA02FC5F
:100DB000C2F1200125FA01F34FEA1C4720FA01F1A4
:100DC00095400D43B3FBF7F107FB11331FFA8CFE7F
:100DD000280C40EA034001FB0EF3834204FA02F4BC
:100DE00008D91CEB000001F1FF382FD283422DD926
:100DF00002396044C01AB0FBF7F307FB1300ADB231
:100E000045EA004503FB0EF0A84208D91CEB050596
:100E100003F1FF3816D2A84214D9023B6544281AC0
:100E200043EA014138E73146304607E72F46E4E61A
:100E30001846F9E64B45A9D2B9EB020865EB0C0E52
:100E40000138A3E74346EAE7284694E74146D1E75D
:100E5000D0467BE76444023847E7023B65442FE70E
:100E6000084606E73146E9E6704700BF00B583B0A3
:100E70000E4B5A6942F001025A615B6903F00103AB
:100E80000193019B00221146102000F099FC1020D4
:100E900000F0CEFC00221146112000F091FC112040
:100EA00000F0C6FC03B05DF804FB00BF0010024078
:100EB0002DE9F04389B00024049405940694079426
:100EC0003D4B9A6942F010029A619A6902F0100251
:100ED0000092009A9A6942F020029A619A6902F09F
:100EE00020020192019A9A6942F004029A619A6979
:100EF00002F004020292029A9A6942F008029A6190
:100F00009B6903F008030393039BDFF8B08022463C
:100F10004FF40051404600F057FFDFF8A4902246FE
:100F20001121484600F050FF264D22464CF60101A3
:100F3000284600F049FF01224FF48061284600F066
:100F400043FF4FF4005304930126059606940227AD
:100F5000079704A9404600F025FE4FF01108CDF890
:100F6000108005960694079704A9484600F01AFEDB
:100F70004CF20103049305960694079704A92846AA
:100F800000F010FE4FF480630493CDF814800696B1
:100F90000327079704A9284600F004FE4FF40063D6
:100FA000049305960694079704A9284600F0FAFDD5
:100FB00009B0BDE8F08300BF0010024000100140FE
:100FC00000080140000C014072B6FEE700B591B088
:100FD0002822002106A803F0CBF8002301930293F6
:100FE000039304930593012206924FF480330793F1
:100FF0000A9202220D920E934FF4E0130F9306A86B
:1010000000F008FF80B90F23019302210291002311
:1010100003934FF480620492059301A801F02CF928
:1010200020B911B05DF804FBFFF7CEFFFFF7CCFF4E
:1010300010B582B000F07AFB274C204602F018FD74
:10104000204602F0CFFAFFF7C1FFFFF731FF00F0B3
:10105000F5F900F063F9FFF709FF00F051F800F02F
:101060007BFA00F05FFA1D4C1D4BC8221D4920463B
:1010700002F0CAFC204602F0DBFCFA2000F07AFB0A
:1010800002F06BFC184A0321012002F055FC174ABC
:101090000A21032002F050FC642000F06BFB144B8B
:1010A0000193702300930022124B6421124802F036
:1010B0009FFA0AE0094802F0C7FC4FF400510F48BC
:1010C00000F088FE642000F055FB044B9B7DDBB2F2
:1010D000012BEFD0F1E700BF640B0020D409002002
:1010E000AC0B0020940A0020A09E0008A89E0008D7
:1010F000D09E000800001640AC9E00080010014081
:1011000008B50E480E4B03604FF482734360002312
:101110008360C360036143614FF4007282611022F7
:10112000C2610362436283620A23C36201F080F9F1
:1011300000B908BDFFF748FFFBE700BFEC0900203E
:101140000030014010B586B000230293039304934E
:1011500005930268164B9A4201D006B010BD03F504
:1011600060439A6942F480529A619A6902F480520B
:101170000092009A9A6942F004029A619B6903F016
:1011800004030193019BA0230293022303930323EF
:101190000593084C02A9204600F004FD4023029369
:1011A00000230393049302A9204600F0FBFCD4E73C
:1011B000003001400008014082B00E4B9A6942F0B5
:1011C00001029A619A6902F001020092009ADA69BA
:1011D00042F08052DA61DB6903F080530193019B96
:1011E000054A536823F0E06343F00073536002B094
:1011F000704700BF0010024000000140FEE7FEE71C
:10120000FEE7FEE7FEE770477047704708B500F05D
:101210009FFA08BD08B5024800F022FC08BD00BFD7
:10122000DC0A002008B5024800F01AFC08BD00BF27
:10123000200B002008B5024801F041FA08BD00BFAC
:10124000940A002008B5024801F0BEFF08BD00BFA7
:10125000AC0B00200368B3F1804F00D070470A4BFD
:101260005B7DDBB2012BF9D1074B5B8999B2074A51
:101270001288914202D0054A1380EFE7024B012207
:101280009A7500225A757047D4090020440A00203C
:101290000268074B9A4200D07047064B01225A75EC
:1012A000D9685A89187D88545A8901325A81F3E7DE
:1012B00000440040D40900200120704708B502F026
:1012C00061FC162303604FF0FF3008BD08B54FF0F6
:1012D000FF31FFF7F3FFFEE708B503460B4A12683C
:1012E00042B10A4A106803446A46934206D8074A44
:1012F000136008BD054A06491160F2E702F042FC9E
:101300000C2303604FF0FF30F3E700BF480A0020D2
:10131000480C00204FF0FF307047704700B587B091
:1013200000230293039304930593009301931648BB
:101330004FF08042026040F2CF224260836040F270
:10134000E732C2600361836101F0B0FA90B94FF4F3
:101350008053029302A90C4801F0ACFB68B900234A
:10136000009301936946084801F024FC40B907B096
:101370005DF804FBFFF728FEE9E7FFF725FEEEE73F
:10138000FFF722FEF3E700BF940A002000B583B008
:101390000368144A934205D0B3F1804F0DD003B0D7
:1013A0005DF804FB104B9A6942F400629A619B69F4
:1013B00003F400630093009BF1E703F50433DA695B
:1013C00042F00102DA61DB6903F001030193019B42
:1013D000002202211C2000F0F3F91C2000F028FA62
:1013E000DDE700BF002C01400010024000B587B0CF
:1013F0000023029303930493059302680D4B9A42D2
:1014000002D007B05DF804FB03F564439A6942F02B
:1014100004029A619B6903F004030193019B4FF45A
:101420008073029302230393059302A9024800F0FC
:10143000B9FBE6E7002C01400008014010B596B06A
:1014400000241294139414941594109411940994F4
:101450000A940B940C940D940E940F942022214620
:1014600001A802F085FE2D482D4B036040F2CF23EA
:10147000436084606323C36004614461846101F05C
:1014800015FA002838D14FF48053129312A923483B
:1014900001F010FB002832D1204801F033FA002877
:1014A00030D100231093119310A91C4801F082FB46
:1014B00058BB6023099332230A9300220B920C92AB
:1014C0000D920E920F9209A9144801F079FAF8B919
:1014D0000023019302930393049305934FF4005266
:1014E0000692089301A90D4801F09AFB98B90B48A0
:1014F000FFF77CFF16B010BDFFF766FDC3E7FFF7EF
:1015000063FDC9E7FFF760FDCBE7FFF75DFDD0E7BF
:10151000FFF75AFDDCE7FFF757FDE8E74C0A00202C
:10152000002C014008B50A480A4B03604FF4E13330
:10153000436000238360C36003610C2242618361C6
:10154000C36101F095FC00B908BDFFF73DFDFBE765
:10155000640B00200038014008B50A480A4B0360BC
:101560004FF4E133436000238360C36003610C22C6
:1015700042618361C36101F07BFC00B908BDFFF7E4
:1015800023FDFBE7AC0B00200044004070B588B0A1
:10159000002304930593069307930368484A9342F4
:1015A00005D00446474A93422BD008B070BD464B45
:1015B0009A6942F480429A619A6902F480420092E8
:1015C000009A9A6942F004029A619B6903F004034D
:1015D0000193019B4FF400730493022305930323AB
:1015E00007933A4C04A9204600F0DCFA4FF48063DC
:1015F000049300230593069304A9204600F0D2FA31
:10160000D3E7314BDA6942F40032DA61DA6902F485
:1016100000320292029A9A6942F004029A619B692E
:1016200003F004030393039B042304930223059311
:1016300003230793254E04A9304600F0B3FA08238C
:10164000049300250595069504A9304600F0AAFAF2
:101650001F48204B0360456085608023C36005619F
:101660004561202383614FF40053C36100F018F9F2
:10167000F8B9174BE3635C621748184B03601023FB
:101680004360002383608022C260036143612022A3
:101690008261C36100F004F970B90F4BA3635C620F
:1016A00000221146262000F08BF8262000F0C0F81A
:1016B0007BE7FFF789FCDCE7FFF786FCEDE700BF7F
:1016C0000038014000440040001002400008014082
:1016D000DC0A00206C000240200B00208000024049
:1016E00010B504460E4B18784FF47A73B3FBF0F341
:1016F0000C4A1068B0FBF3F000F0A8F868B90F2CA2
:1017000001D901200AE0002221464FF0FF3000F00D
:1017100057F8054B1C60002000E0012010BD00BF01
:1017200004000020000000200800002008B5074A3F
:10173000136843F010031360032000F02FF80F200C
:10174000FFF7CEFFFFF738FD002008BD0020024064
:10175000034A1168034B1B780B441360704700BFAA
:10176000F40B002004000020014B1868704700BFF4
:10177000F40B002038B50446FFF7F6FF0546B4F138
:10178000FF3F02D0044B1B781C44FFF7EDFF401BCA
:10179000A042FAD338BD00BF04000020074AD36836
:1017A00023F4E0631B041B0C000200F4E06003431D
:1017B00043F0BF6343F40033D360704700ED00E0B3
:1017C00000B5194BDB68C3F30223C3F1070CBCF16E
:1017D000040F28BF4FF0040C03F1040EBEF1060FF6
:1017E00018D9033B4FF0FF3E0EFA0CFC21EA0C0126
:1017F00099400EFA03F322EA0303194300280BDB96
:101800000901C9B200F1604000F5614080F80013A1
:101810005DF804FB0023E5E700F00F000901C9B201
:10182000024B1954F4E700BF00ED00E014ED00E0B6
:10183000002807DB00F01F02400901239340024A01
:1018400042F82030704700BF00E100E00138B0F1FD
:10185000807F0BD24FF0E0235861054AF02182F8D7
:1018600023100020986107221A61704701207047F9
:1018700000ED00E030B40124056CAC40C56B6C6039
:10188000046863604368102B05D00368996003689F
:10189000DA6030BC704703689A600368D960F8E783
:1018A00060B310B402460168154B0B441548A0FB09
:1018B00003031B099B001364134BD363022382F8B9
:1018C0002130086820F47F5020F03000536894687D
:1018D0002343D468234314692343546923439469FD
:1018E0002343D469234303430B6000209063012307
:1018F00082F8213082F8200010BC70470120704728
:10190000F8FFFDBFCDCCCCCC0000024038B504467A
:1019100090F82000012832D0012084F8200094F8AB
:101920002100C0B2012804D0002384F82030022016
:1019300038BD022084F821000020A06325682868B3
:1019400020F0010028602046FFF794FFE36A5BB1B6
:101950002268136843F00E0313602268136843F093
:10196000010313600020E3E72268136823F00403F7
:1019700013602268136843F00A031360EDE7022046
:10198000D6E790F82130DBB2022B06D00423836324
:10199000002380F82030012070470268136823F08C
:1019A0000E0313600268136823F001031360036CD5
:1019B000C16B012202FA03F34B6080F8212000235F
:1019C00080F820301846704708B590F82130DBB217
:1019D000022B03D004238363012008BD026813682F
:1019E00023F00E0313600268136823F001031360F1
:1019F0000368194A934214D0143293421FD0143210
:101A000093421ED0143293421ED0143293421ED001
:101A10001432934202D04FF0807203E04FF48012F0
:101A200000E001220D4B5A60012380F82130002391
:101A300080F82030436B6BB198470020CDE710222F
:101A4000F0E74FF48072EDE74FF48052EAE74FF48D
:101A50008032E7E70020C0E70800024000000240B3
:101A600038B5C36B1A6804682568016C04238B4081
:101A7000134235D015F0040F32D0236813F0200F35
:101A800003D1236823F0040323600368434A93428D
:101A900014D01432934218D01432934217D0143217
:101AA000934217D01432934217D01432934202D08B
:101AB0004FF0806203E04FF4800200E00422384BD4
:101AC0005A60C36A03B1984738BD4022F7E74FF424
:101AD0008062F4E74FF48042F1E74FF48022EEE7B2
:101AE00002238B4013423CD015F0020F39D02368FB
:101AF00013F0200F06D1236823F00A03236001238B
:101B000080F821300368254A934214D0143293425E
:101B10001CD0143293421BD0143293421BD0143287
:101B200093421BD01432934202D04FF0007203E074
:101B30004FF4001200E00222194B5A60002380F893
:101B40002030836A002BBFD09847BDE72022F3E7FF
:101B50004FF40072F0E74FF40052EDE74FF400321B
:101B6000EAE7082303FA01F11142ADD015F0080F9E
:101B7000AAD0236823F00E032360026CC16B0123FB
:101B800003FA02F24A60836380F82130002380F870
:101B90002030036B002B97D0984795E70800024050
:101BA0000000024070B582B00024A446A6E0804D3B
:101BB000AA4210D007D97F4DAA420CD005F5803536
:101BC000AA4208D013E0A5F58015AA4203D005F576
:101BD0007025AA4207D18A68002A58D0012A51D01C
:101BE0004361082403E0A5F58015AA42F3D0BEF1B5
:101BF000FF0F4ED80646BEF1FF0F4CD84FEA8C02BD
:101C000033680F25954023EA050304FA02F21343D3
:101C100033604B6813F0805F6ED0674B9A6942F077
:101C200001029A619B6903F001030193019B4FEA52
:101C30009C02951C614B53F825600CF003039D003A
:101C40000F23AB4026EA03065D4B984229D003F5EB
:101C50008063984200F08E8003F58063984200F024
:101C60008B8003F58063984219D004231AE0CC6876
:101C7000BDE7CC680434BAE7CC680834B7E7CC6871
:101C80000C34B4E703610824B1E70024AFE704246F
:101C9000ADE7061DAFE7ACF108029200B0E7032301
:101CA00000E00023AB4033430232444D45F822307C
:101CB0004B6813F4801F61D0424A936843EA0E03D5
:101CC00093604B6813F4001F5ED03E4AD36843EA2A
:101CD0000E03D3604B6813F4003F5BD0394A53685E
:101CE00043EA0E0353604B6813F4803F58D0354AE3
:101CF000136843EA0E0313600CF1010C0A6832FA10
:101D00000CF353D0012303FA0CF302EA030E33EA77
:101D10000202F1D14A68122A3FF649AF122A3FF671
:101D200066AF01A555F822F0D71B00086F1C00080C
:101D3000791C00088B1C0008EF1B0008EF1B000833
:101D4000EF1B0008EF1B0008EF1B0008EF1B00084B
:101D5000EF1B0008EF1B0008EF1B0008EF1B00083B
:101D6000EF1B0008EF1B0008EF1B0008731C0008A6
:101D70007F1C0008012395E7022393E7114A93682B
:101D800023EA0E0393609CE70E4AD36823EA0E030E
:101D9000D3609FE70B4A536823EA0E035360A2E720
:101DA000084A136823EA0E031360A5E702B070BD6A
:101DB000000022100000311000100240000001401D
:101DC00000080140000401400AB1016170470904A4
:101DD00001617047C36801EA030221EA030141EA95
:101DE000024101617047000082B0084B1B68084A3D
:101DF000A2FB03235B0A00FB03F3019300BF019BDB
:101E00005A1E0192002BF9D102B070470000002049
:101E1000D34D6210002800F0F18170B582B0044605
:101E2000036813F0010F2CD0994B5B6803F00C038F
:101E3000042B1DD0964B5B6803F00C03082B12D0CB
:101E40006368B3F5803F41D0002B55D103F1804347
:101E500003F504331A6822F480321A601A6822F4F7
:101E600080221A6037E08A4B5B6813F4803FE7D02A
:101E7000874B1B6813F4003F03D06368002B00F00E
:101E8000BF81236813F0020F75D0814B5B6813F09C
:101E90000C0F5FD07E4B5B6803F00C03082B54D013
:101EA0002369002B00F08A807A4B01221A60FFF729
:101EB0005BFC0546764B1B6813F0020F75D1FFF7EC
:101EC00053FC401B0228F5D903209EE1704A136899
:101ED00043F480331360636843B3FFF745FC054662
:101EE0006B4B1B6813F4003FCBD1FFF73DFC401B4D
:101EF0006428F5D9032088E1B3F5A02F09D0644BFD
:101F00001A6822F480321A601A6822F480221A6059
:101F1000E1E703F18043A3F53C331A6842F48022E1
:101F20001A601A6842F480321A60D4E7FFF71CFC8A
:101F30000546574B1B6813F4003FA2D0FFF714FC73
:101F4000401B6428F5D903205FE1514B5B6813F413
:101F5000803FA5D14E4B1B6813F0020F03D02369BD
:101F6000012B40F04F814A4A136823F0F80361695E
:101F700043EAC1031360236813F0080F33D0A36949
:101F8000002B5CD0434B0122C3F88024FFF7ECFB0D
:101F900005463F4B5B6A13F0020F21D1FFF7E4FBCC
:101FA000401B0228F5D903202FE1394A136823F09A
:101FB000F803616943EAC1031360DCE7354B002293
:101FC0001A60FFF7D1FB0546314B1B6813F0020F77
:101FD000D1D0FFF7C9FB401B0228F5D9032014E13B
:101FE0000120FFF701FF236813F0040F00F0968033
:101FF000274BDB6913F0805F34D1254BDA6942F05F
:102000008052DA61DB6903F080530193019B012563
:10201000214B1B6813F4807F26D0E368012B3DD051
:10202000002B53D103F1804303F504331A6A22F0E5
:1020300001021A621A6A22F004021A6233E0154B96
:102040000022C3F88024FFF78FFB0546104B5B6A24
:1020500013F0020FC7D0FFF787FB401B0228F5D90A
:102060000320D2E00025D3E70B4A136843F48073C2
:102070001360FFF779FB0646074B1B6813F4807F5C
:10208000CBD1FFF771FB801B6428F5D90320BCE09E
:102090000010024000004242007000405F4A136A94
:1020A00043F001031362E36833B3FFF75DFB0646B9
:1020B0005A4B1B6A13F0020F2FD1FFF755FB801B01
:1020C00041F288339842F3D903209EE0052B09D0D2
:1020D000524B1A6A22F001021A621A6A22F00402B2
:1020E0001A62E0E74D4B1A6A42F004021A621A6A59
:1020F00042F001021A62D6E7FFF736FB0646474B6D
:102100001B6A13F0020F08D0FFF72EFB801B41F271
:1021100088339842F3D9032077E0E5B9E369002BCF
:1021200072D03E4A526802F00C02082A56D0022BA6
:1021300017D03B4B00221A66FFF716FB0446374BBD
:102140001B6813F0007F47D0FFF70EFB001B02282F
:10215000F5D9032059E0314AD36923F08053D36184
:10216000DCE72F4B00221A66FFF7FEFA05462B4BE1
:102170001B6813F0007F06D0FFF7F6FA401B022819
:10218000F5D9032041E0236AB3F5803F1AD02349F3
:102190004B6823F47413226A606A024313434B6052
:1021A0001F4B01221A66FFF7DFFA04461B4B1B6820
:1021B00013F0007F0ED1FFF7D7FA001B0228F5D9E4
:1021C000032022E0154A536823F40033A1680B432F
:1021D0005360DCE7002018E0002016E0012B16D049
:1021E0000E4B5B6803F48031226A914211D103F4F3
:1021F0007013626A93420ED1002006E001207047FE
:10220000012002E0012000E0002002B070BD0120AA
:10221000FBE70120F9E70120F7E700BF00100240CB
:10222000000042420F4B5B6803F00C02082A01D009
:102230000D487047C3F383420C49885C13F4803F18
:102240000BD0084B5B68C3F34043094AD35C064A92
:1022500002FB00F0B0FBF3F07047064B03FB00F00D
:10226000704700BF0010024000127A00F49E000880
:10227000049F000800093D00002800F0A08070B510
:102280000D460446524B1B6803F007038B420BD2EA
:102290004F4A136823F007030B431360136803F0DE
:1022A00007038B4240F08D80236813F0020F17D094
:1022B00013F0040F04D0474A536843F4E0635360BB
:1022C000236813F0080F04D0424A536843F4605364
:1022D0005360404A536823F0F003A1680B435360F6
:1022E000236813F0010F31D06368012B20D0022B3B
:1022F00025D0384A126812F0020F64D035494A6876
:1023000022F0030213434B60FFF72EFA0646314BCF
:102310005B6803F00C036268B3EB820F16D0FFF723
:1023200023FA801B41F288339842F0D9032045E01C
:10233000284A126812F4003FE0D101203EE0254A0D
:10234000126812F0007FD9D1012037E0204B1B68C2
:1023500003F00703AB420AD91D4A136823F00703B1
:102360002B431360136803F00703AB422DD123689E
:1023700013F0040F06D0174A536823F4E063E168B2
:102380000B435360236813F0080F07D0114A5368BA
:1023900023F46053216943EAC1035360FFF742FF0E
:1023A0000C4B5B68C3F303130B4AD35CD8400B4B55
:1023B00018600B4B1868FFF793F9002070BD0120DF
:1023C00070470120FAE70120F8E70120F6E700BF97
:1023D0000020024000100240DC9E000800000020A7
:1023E00008000020014B1868704700BF0000002063
:1023F00008B5FFF7F7FF044B5B68C3F30223034AFA
:10240000D35CD84008BD00BF00100240EC9E00081D
:1024100008B5FFF7E7FF044B5B68C3F3C223034A29
:10242000D35CD84008BD00BF00100240EC9E0008FD
:10243000002856D010B50446436A33B94368B3F553
:10244000827F05D00023C36102E000230361436162
:102450000023A36294F85130002B3CD0022384F86F
:1024600051302268136823F040031360636803F45B
:102470008273A26802F404421343E26802F4006229
:102480001343226902F002021343626902F001025F
:102490001343A26902F400721343E26902F03802A6
:1024A0001343226A02F080021343A26A02F400522C
:1024B000216813430B60638B226803F004035360AD
:1024C0002268D36923F40063D3610020606501238F
:1024D00084F8513010BD84F850302046FEF732FEAB
:1024E000BCE701207047000070B4036A026A22F062
:1024F000010202624668826922F073020C6844EAB3
:10250000020523F002028B6813430D4CA04209D050
:102510000B4CA0420DD0466085614A68426303625D
:1025200070BC704723F00803CA68134323F0040308
:10253000EEE726F440764A6932438E691643EAE7AD
:10254000002C014030B4036A026A22F480720262F5
:102550004568C26922F073020C68224323F40073B9
:102560008C6843EA04230F4CA04209D00D4CA042D2
:102570000ED04560C2614A68C263036230BC7047D6
:1025800023F40063CC6843EA042323F48063EDE77B
:1025900025F440554C6945EA04158C6945EA041553
:1025A000E7E700BF002C014030B4036A026A22F45E
:1025B000805202624468C26922F4E6420D6842EA2F
:1025C000052223F400538D6843EA0533074DA842E2
:1025D00006D04460C2614A680264036230BC70473E
:1025E00024F480444D6944EA8514F2E7002C01404C
:1025F00010B4036A046A24F001040462846924F0BC
:10260000F00C4CEA021223F00A030B4382610362CE
:1026100010BC704710B4036A046A24F0100404620A
:10262000846924F4704C4CEA023223F0A00343EA9C
:1026300001138261036210BC7047836823F070034A
:102640000B4343F0070383607047000090F83D3070
:10265000DBB2012B27D1022380F83D300268D3681A
:1026600043F00103D3600368114A934210D0B3F1E1
:10267000804F0DD0A2F59432934209D002F58062CA
:10268000934205D01A6842F001021A600020704798
:102690009A6802F00702062A07D01A6842F001027F
:1026A0001A6000207047012070470020704700BF6B
:1026B000002C01407047704770477047704710B555
:1026C000044603681A6912F0020F11D0DA6812F09A
:1026D000020F0DD06FF002021A6101230377036825
:1026E0009B6913F0030F70D0FFF7E6FF00232377F9
:1026F00023681A6912F0040F12D0DA6812F0040F7E
:102700000ED06FF004021A610223237723689B69BD
:1027100013F4407F5FD02046FFF7CEFF00232377DE
:1027200023681A6912F0080F12D0DA6812F0080F45
:102730000ED06FF008021A61042323772368DB6947
:1027400013F0030F4ED02046FFF7B6FF0023237788
:1027500023681A6912F0100F12D0DA6812F0100F05
:102760000ED06FF010021A61082323772368DB690B
:1027700013F4407F3DD02046FFF79EFF00232377D0
:1027800023681A6912F0010F03D0DA6812F0010F02
:1027900036D123681A6912F0800F03D0DA6812F07C
:1027A000800F34D123681A6912F0400F03D0DA6821
:1027B00012F0400F32D123681A6912F0200F03D0B3
:1027C000DA6812F0200F30D110BDFFF774FF2046F9
:1027D000FFF773FF8AE72046FFF76DFF2046FFF7FC
:1027E0006CFF9BE72046FFF766FF2046FFF765FF7B
:1027F000ACE72046FFF75FFF2046FFF75EFFBDE72F
:102800006FF001021A612046FEF724FDC1E76FF068
:1028100080021A61204600F02DFAC3E76FF04002F3
:102820001A612046FFF74AFFC5E76FF020021A61E0
:10283000204600F01EFAC7E703681B4A90420AD000
:10284000B0F1804F07D0A2F59432904203D002F548
:102850008062904203D123F070034A681343124A06
:1028600090420AD0B0F1804F07D0A2F59432904246
:1028700003D002F58062904203D123F44073CA680A
:10288000134323F080034A69134303608B68C362D8
:102890000B688362044B984202D001234361704766
:1028A0000B690363F9E700BF002C014040B310B58A
:1028B000044690F83D30F3B1022384F83D302146C0
:1028C00051F8040BFFF7B8FF012384F8463084F871
:1028D0003E3084F83F3084F8403084F8413084F84A
:1028E000423084F8433084F8443084F8453084F82A
:1028F0003D30002010BD80F83C30FEF747FDDBE79F
:102900000120704740B310B5044690F83D30F3B154
:10291000022384F83D30214651F8040BFFF78CFF69
:10292000012384F8463084F83E3084F83F3084F840
:10293000403084F8413084F8423084F8433084F8E1
:10294000443084F8453084F83D30002010BD80F8D4
:102950003C30FFF7AFFEDBE70120704730B4036A7D
:10296000026A22F0100202624468826922F4E6429E
:102970000D6842EA052223F020038D6843EA05131F
:102980000E4DA84209D00D4DA8420ED04460826180
:102990004A688263036230BC704723F08003CD68CD
:1029A00043EA051323F04003EDE724F440644D6946
:1029B00044EA85048D6944EA8504E7E7002C014078
:1029C00038B590F83C30012B66D004460D46012303
:1029D00080F83C300C2A5AD8DFE802F007595959E0
:1029E0001B5959593059595944000068FFF77CFD6B
:1029F0002268936943F0080393612268936923F086
:102A0000040393612268936929690B439361002051
:102A10003EE00068FFF7A2FF2268936943F4006379
:102A200093612268936923F48063936122689369B8
:102A3000296943EA01239361002029E00068FFF738
:102A400081FD2268D36943F00803D3612268D3690A
:102A500023F00403D3612268D36929690B43D3614E
:102A6000002015E00068FFF79FFD2268D36943F45A
:102A70000063D3612268D36923F48063D361226841
:102A8000D369296943EA0123D361002000E00120D2
:102A9000002384F83C3038BD0220FCE710B4846881
:102AA00024F47F4C42EA03220A4342EA0C02826089
:102AB00010BC704790F83C30012B78D010B504461C
:102AC000012380F83C30022380F83D30026893688F
:102AD00023F47F4323F0770393600B68602B4CD083
:102AE00029D8402B54D00CD9502B22D1CA68496820
:102AF0000068FFF77DFD50212068FFF79EFD002054
:102B000005E0202B0DD009D9302B0AD0012001235C
:102B100084F83D30002384F83C3010BD0BB1102BFD
:102B200005D119462068FFF788FD0020EFE7012056
:102B3000EDE70120EBE7B3F5805F34D0B3F5005F3C
:102B40000CD1CB684A6889680068FFF7A7FF226844
:102B5000936843F4804393600020D8E7702B24D11E
:102B6000CB684A6889680068FFF798FF2268936815
:102B700043F0770393600020C9E7CA68496800689A
:102B8000FFF748FD60212068FFF757FD0020BEE7F2
:102B9000CA6849680068FFF72BFD40212068FFF7ED
:102BA0004CFD0020B3E70020B1E70120AFE7022091
:102BB0007047000090F83C30012B2CD010B401235A
:102BC00080F83C30022380F83D3003685A689C68E6
:102BD00022F0700C0A6842EA0C025A6003680F4A3D
:102BE00093420AD0B3F1804F07D0A2F594329342BA
:102BF00003D002F58062934204D124F080044A6835
:102C000014439C60012380F83D30002380F83C3061
:102C1000184610BC70470220704700BF002C0140CE
:102C200090F83C30012B22D0012380F83C30CB6857
:102C300023F440738A68134323F480634A68134380
:102C400023F400630A68134323F480530A6913438F
:102C500023F400534A69134323F48043CA6913439E
:102C600002685364002380F83C3018467047022005
:102C7000704770477047026802F10C0353E8003F49
:102C800023F0C0030C3242E800310029F3D12023A5
:102C900080F841307047026802F10C0353E8003FAE
:102CA00023F490730C3242E800310029F3D102681A
:102CB00002F1140353E8003F23F00103143242E809
:102CC00000310029F3D1036B012B05D0202380F8BC
:102CD0004230002303637047026802F10C0353E89B
:102CE000003F23F010030C3242E800310029F3D1F9
:102CF000ECE790F84130DBB2212B01D00220704785
:102D00008368B3F5805F17D0036A5A1C02621A7891
:102D100003685A60C38C9BB2013B9BB2C3844BB91E
:102D20000268D36823F08003D3600268D36843F05D
:102D30004003D360002070470369002BE4D1036A8D
:102D40001B880268C3F308035360036A02330362FB
:102D5000E0E7000010B504460268136923F440530D
:102D6000C1680B43136183680269134342691A43C4
:102D70000168CB6823F4B05323F00C031343CB60FA
:102D80000268536923F4407381690B4353610268FD
:102D9000134B9A4220D0FFF72BFB024602EB820234
:102DA00002EB820263689B00B2FBF3F20D48A0FBCA
:102DB00002314909642303FB11231B013233A0FBB9
:102DC00003235B0903F0F00202EB011203F00F038F
:102DD000216813448B6010BDFFF71AFB0246DDE744
:102DE000003801401F85EB512DE9F84305460F4699
:102DF00016469946DDF820802C68246837EA0403DB
:102E00000CBF4FF0010C4FF0000CB4452DD1B8F1C0
:102E1000FF3FF1D0B8F1000F05D0FEF7A5FCA0EB05
:102E200009004045E8D92A6802F10C0353E8003F45
:102E300023F4D0730C3242E800310029F3D12A6820
:102E400002F1140353E8003F23F00103143242E877
:102E500000310029F3D1202385F8413085F8423034
:102E6000002385F84030032000E00020BDE8F8830F
:102E700060B310B5044690F8413013B3242384F8AE
:102E800041302268D36823F40053D3602046FFF713
:102E900061FF2268136923F4904313612268536928
:102EA00023F02A0353612268D36843F40053D360AC
:102EB00000206064202384F8413084F8423060634D
:102EC00010BD80F84030FEF761FBD7E70120704766
:102ED0002DE9F04182B01E4690F84130DBB2202B44
:102EE0004BD104460D46904600294AD00AB901202C
:102EF00044E000234364212380F84130FEF734FC92
:102F00000746A4F82480A4F82680A368B3F5805F60
:102F100002D04FF000080FE02369FBB14FF000082A
:102F20000AE038F8023B2268C3F308035360E28CDE
:102F300092B2013A92B2E284E38C9BB28BB10096DA
:102F40003B46002280212046FFF74EFFD8B9002DD6
:102F5000E7D015F8012B23685A60E8E7A84600255A
:102F6000EAE700963B46002240212046FFF73CFF5F
:102F700058B9202384F8413000E0022002B0BDE8B7
:102F8000F0810120FAE70320F8E70320F6E72DE9B6
:102F9000F04182B01E4690F84230DBB2202B53D174
:102FA00004460D469046002952D00AB901204CE053
:102FB00000234364222280F842200363FEF7D4FBFF
:102FC0000746A4F82C80A4F82E80A368B3F5805F90
:102FD00002D04FF0000817E0236913B14FF000084A
:102FE00012E0A84600250FE023685B68C3F30803DE
:102FF00028F8023B03E023685B682B700135E28D03
:1030000092B2013A92B2E285E38D9BB2BBB10096D7
:103010003B46002220212046FFF7E6FED0B9002DD6
:10302000E2D0A368B3F5805FE5D013B92369002B24
:10303000E1D023685B6803F07F032B70DEE7202379
:1030400084F84230002000E0022002B0BDE8F081A8
:103050000120FAE70320F8E7704708B50168CA685D
:1030600022F04002CA60202280F84120FFF7F4FFDE
:10307000002008BD7047704710B5446A23685A693C
:1030800094F84130DBB2212B10D023685A6902F04A
:10309000400294F84230DBB2222B11D0636C43F033
:1030A000100363642046FFF7E6FF10BD02F08002C4
:1030B000002AEAD00023E3842046FFF7DCFDE4E7A2
:1030C000002AEBD00023E3852046FFF7E4FDE5E787
:1030D00008B5406A0023C385C384FFF7CCFF08BD51
:1030E000704790F84230DBB2222B69D18368B3F588
:1030F000805F4FD0826AB3F5805F04D0002B56D139
:103100000369002B53D103685B681370836A013332
:103110008362C38D9BB2013B9BB2C385002B51D10F
:1031200000B583B00268D36823F02003D36002683F
:10313000D36823F48073D3600268536923F00103DA
:103140005361202380F8423000234363036B012B3B
:1031500033D100230363026802F10C0353E8003FFC
:1031600023F010030C3242E800310029F3D1036848
:103170001A6812F0100F06D0002201921A6801920C
:103180005B680193019B818DFFF7AAFF002003B0CC
:103190005DF804FB0269002AACD1826A03685B68AF
:1031A000C3F308031380836A02338362B1E70368C1
:1031B0005B6803F07F031370A8E7FEF769F8E5E7A3
:1031C000022070470020704730B583B00446026883
:1031D0001368D068516913F00F0505D113F0200F63
:1031E00002D010F0200F19D12DB111F0010119D129
:1031F00010F4907F16D1216B01297DD013F0800F40
:1032000003D010F0800F40F0188113F0400F03D06E
:1032100010F0400F40F0158103B030BD2046FFF79D
:1032200060FFF9E713F0010F06D010F4807F03D0A0
:10323000626C42F00102626413F0040F04D019B111
:10324000626C42F00202626413F0020F04D019B102
:10325000626C42F00402626413F0080F07D010F0B1
:10326000200F00D119B1626C42F008026264626CF6
:10327000002AD1D013F0200F02D010F0200F29D156
:1032800023685B6903F04003626C12F0080F00D101
:1032900063B32046FFF7FFFC23685B6913F0400F20
:1032A00020D0226802F1140353E8003F23F04003CA
:1032B000143242E800310029F3D1E36B73B1634A61
:1032C0005A63E06BFEF780FB0028A5D0E06B436BF0
:1032D0009847A1E72046FFF704FFD1E72046FFF714
:1032E000CAFE99E72046FFF7C6FE95E72046FFF79E
:1032F000C2FE002363648FE713F0100F3FF47EAF2C
:1033000010F0100F3FF47AAF00230193136801937C
:1033100053680193019B536913F0400F51D0E26B46
:1033200013685B689BB2002B3FF476AFA18D994286
:103330007FF672AFE3859369202B37D0226802F1C4
:103340000C0353E8003F23F480730C3242E8003151
:103350000029F3D1226802F1140353E8003F23F05F
:103360000103143242E800310029F3D1226802F14E
:10337000140353E8003F23F04003143242E80031C5
:103380000029F3D1202384F84230002323632268EC
:1033900002F10C0353E8003F23F010030C3242E823
:1033A00000310029F3D1E06BFEF7EBFA02236363EF
:1033B000A18DE38D9BB2C91A89B22046FFF790FE1A
:1033C0002AE7A18DE38D9BB2C91A89B2E38D9BB226
:1033D000002B3FF421AF00293FF41EAF226802F119
:1033E0000C0353E8003F23F490730C3242E80030A2
:1033F0000028F3D1226802F1140353E8003F23F0C0
:103400000103143242E800300028F3D1202384F86D
:10341000423000232363226802F10C0353E8003F8B
:1034200023F010030C3242E800300028F3D10223CD
:1034300063632046FFF754FEEEE62046FFF759FC93
:10344000EAE62046FFF709FEE6E600BFD1300008B5
:1034500008B5406A01234363036B012B02D0FFF7D9
:1034600009FE08BD818D4908FFF73AFEF9E708B566
:103470000346406A1B681B6813F0200F2BD1002302
:10348000C385026802F10C0353E8003F23F4807304
:103490000C3242E800310029F3D1026802F1140332
:1034A00053E8003F23F00103143242E800310029C1
:1034B000F3D1026802F1140353E8003F23F0400304
:1034C000143242E800310029F3D1202380F8423041
:1034D000036B012B07D000234363036B012B0FD039
:1034E000FDF7D6FE08BD026802F10C0353E8003F69
:1034F00023F010030C3242E800310029F3D1EAE74F
:10350000818DFFF7EDFDEDE730B583B0044613463E
:103510008162828500254564222280F84220C26BA8
:103520001F489062E26B1F48D062E26B1E48106336
:10353000E26B556320680A46011DE06BFEF7E6F971
:10354000019523681A6801925B680193019B2369C6
:103550005BB1226802F10C0353E8003F43F480732F
:103560000C3242E800310029F3D1226802F1140341
:1035700053E8003F43F00103143242E800310029D0
:10358000F3D1226802F1140353E8003F43F04003F3
:10359000143242E800310029F3D1002003B030BDDD
:1035A0006F340008513400087930000808B590F8ED
:1035B0004230DBB2202B08D149B10AB9012008BD45
:1035C00000230363FFF7A0FFF9E70220F7E70120DC
:1035D000F5E70246002001E0013080B2135C002BC9
:1035E000FAD17047014B1860704700BFF80B0020FC
:1035F0000FB4F0B585B00BAD0020044619E00A22E7
:1036000001A955F8040B00F0E7FA5A4B1E6801A80F
:10361000FFF7DFFF024640F2E73301A93046FFF72C
:1036200057FC002301930293ADF80C30023420467E
:1036300001340A990B5D002B00F08E80252BF7D109
:10364000221A40F2E73392B201444A480068FFF779
:103650003FFC631C0A9AD35C633B102BE6D801A2A3
:1036600052F823F0A9360008FF3500082D3600086F
:103670001B3700082D3600082D3600082D360008AF
:103680002D3600082D3600082D3600082D3600088E
:103690002D3600082D360008BF3600082D360008EC
:1036A0002D360008FD3600082E1D40F2E7330122BA
:1036B000294630480068FFF70BFC3546B6E7302353
:1036C0008DF8043078238DF8053010220DF10601B5
:1036D00055F8040B00F080FA264B1E6801A8FFF78E
:1036E00078FF024640F2E73301A93046FFF7F0FBCE
:1036F000002301930293ADF80C3097E755F8046B63
:103700001C4B1F683046FFF764FF024640F2E73368
:1037100031463846FFF7DCFB88E715F0070F19D074
:103720000C231D4455E90223134901A800F068FE4B
:10373000104B1E6801A8FFF74CFF024640F2E7332A
:1037400001A93046FFF7C4FB002301930293ADF8B3
:103750000C306BE70823E4E7221A40F2E73392B219
:10376000014404480068FFF7B3FB05B0BDE8F04032
:1037700004B07047F80B0020089F000820B94FF0F4
:103780000062034B1A6170474FF40062F9E700BF13
:10379000000C014008B50120FFF7F0FF01224FF4B3
:1037A00080610248FEF710FB08BD00BF000C01401D
:1037B00010B50A4C01224FF480612046FEF704FB4D
:1037C0000120FFF7DBFF00224FF480612046FEF767
:1037D000FBFA0020FFF7D2FF10BD00BF000C014034
:1037E00010B5084C00224FF480612046FEF7ECFA39
:1037F0000120FFF7C3FF01224FF480612046FEF74E
:10380000E3FA10BD000C014038B5054600240FE076
:10381000802222412A404FF480610A48FEF7D4FA00
:103820000120FFF7ABFF0020FFF7A8FF0134E4B24F
:10383000072CEDD90120FFF7A1FF0020FFF79EFF25
:1038400038BD00BF000C014010B50446FFF7B0FFC3
:103850007820FFF7D9FF0020FFF7D6FF2046FFF7BB
:10386000D3FFFFF7BDFF10BD10B50446FFF7A0FF63
:103870007820FFF7C9FF4020FFF7C6FF2046FFF77B
:10388000C3FFFFF7ADFF10BD10B50C4640F0B00010
:10389000FFF7DAFF200940F01000FFF7D5FF04F032
:1038A0000F00FFF7D1FF10BD38B5002509E000205B
:1038B000FFF7DAFF0134E4B214F0800FF7D00135DE
:1038C000EDB2072D05D800212846FFF7DDFF0024C3
:1038D000F2E738BDF8B51546461E7600F6B24F1E23
:1038E000FF00FFB239463046FFF7CEFF002409E063
:1038F000A5F120030F4A02EB0313185DFFF7B4FF95
:103900000134E4B2072CF3D9701C3946C0B2FFF77A
:10391000BBFF00240BE0A5F1200304F108020549D8
:1039200001EB0313985CFFF79FFF0134E4B2072C0F
:10393000F1D9F8BD0C9F0008F8B507460E461546AC
:10394000002406E0A119C9B23846FFF7C3FF0134CD
:10395000E4B22A5D002AF5D1F8BD08B5002204E0E2
:103960000133B3F57A7FFBD30132B2F57A7F01D20E
:103970000023F6E7FFF70EFFAE20FFF765FFD52027
:10398000FFF762FF8020FFF75FFFA820FFF75CFFD3
:103990003F20FFF759FFD320FFF756FF0020FFF726
:1039A00053FF4020FFF750FFA120FFF74DFFC82035
:1039B000FFF74AFFDA20FFF747FF1220FFF744FF27
:1039C0008120FFF741FFCF20FFF73EFFD920FFF70F
:1039D0003BFFF120FFF738FFDB20FFF735FF3020FA
:1039E000FFF732FFA420FFF72FFFA620FFF72CFFE1
:1039F0008D20FFF729FF1420FFF726FFAF20FFF7E8
:103A000023FFFFF751FF08BD38B504461046236079
:103A100061600025A572E572228125746574A57424
:103A2000E57400F0F1F8E06025756575A57538BDA1
:103A300010B50446014651F8140B0122FFF7B6FDFC
:103A40006068FEF703FE10BD837DDBB2012B01D061
:103A50000120704710B5044640F2E7334289C1683F
:103A60000068FFF735FA0020A075A072E07210BD63
:103A700008B5054B1860054B18680023022219464B
:103A8000806800F0E5FB08BDFC0B00200C00002066
:103A9000022801D80120704708B500F073F8092307
:103AA0000360002008BD000010B5013801280AD8C5
:103AB00014464FF0FF3392B207480068FFF708FA48
:103AC00040B9204610BD00F05DF8092303604FF0B7
:103AD000FF30F7E70520F5E7FC0B002008B500F004
:103AE00051F8092303604FF0FF3008BD08B548B90D
:103AF0004FF0FF33012208480068FFF748FA40B949
:103B0000012008BD00F03EF8092303604FF0FF30AC
:103B1000F7E70520F5E700BFFC0B002008B50228F9
:103B200004D84FF400534B60002008BD00F02AF881
:103B300009230360F8E70000FDF7EFFB0B480C4991
:103B40000C4A002302E0D458C4500433C4188C42F9
:103B5000F9D3094A094C002301E013600432A24260
:103B6000FBD300F015F8FDF763FA70470000002062
:103B7000B809002034A90008B8090020480C00202A
:103B8000FEE70000014B1868704700BF0C000020E2
:103B900070B50D4E0D4D761BB61006D0002455F8AD
:103BA000043B01349847A642F9D1094E094D06F06D
:103BB0006BF9761BB61006D0002455F8043B01348F
:103BC0009847A642F9D170BD28A9000828A9000885
:103BD00030A9000828A90008931E222B10B50C4616
:103BE0000DD80A2A04D0214602F07EF9204610BDE5
:103BF0000028F8DA2D23404201F8013BF4E70023C6
:103C00000B70184610BD00BF024B0146186800F04B
:103C100003B800BF0C0000202DE9F04F01F10B05A7
:103C2000162D064683B025D8102900F2B88000F082
:103C3000F1FA102518224FF0020CB54F3A445368A0
:103C4000A2F108018B4200F0B7805A68D96822F0CF
:103C500003021A449C683046E1608C60516803F1AD
:103C6000080441F00101516000F0DAFA204603B087
:103C7000BDE8F08F35F0070500F19180A94200F210
:103C80008E8000F0C7FAB5F5FC7FC0F094816B0A16
:103C900000F08C80042B00F26A81AB0903F1390C2F
:103CA00003F138044FEACC00994F38444368083890
:103CB000984206D10CE0002980F22681DB68984208
:103CC00006D05A6822F00302511B0F29F3DDA446E7
:103CD0003C69DFF840E274457AD0626822F0030262
:103CE000531B0F2B00F37681002BC7E904EE80F203
:103CF0006781B2F5007F80F019810121D308520954
:103D00000B4491407A6857F833000A4307EBC3012C
:103D10000839A060E1607A6047F83340C46001214F
:103D20004FEAAC039940914259D8114206D12CF088
:103D3000030C490011420CF1040CFAD007EBCC093A
:103D400048466446D0F80C80404508D11CE1002B61
:103D500080F22181D8F80C80404500F01581D8F818
:103D6000042022F00302531B0F2BF0DD08EB0501AA
:103D700045F00105C8F804503046D8E90264F46003
:103D8000A66043F00104C7E904114C60C1E902EEEA
:103D900048F8023000F044FA08F1080402E00C236D
:103DA00000243360204603B0BDE8F08F4FF400706C
:103DB0004FF0400C3F2477E7D3689A4208BF0CF1DC
:103DC000020C7FF442AF3C69DFF848E1744584D1CE
:103DD00001217A684FEAAC0399409142A5D9BC68A9
:103DE000636823F003094D4503D8A9EB05030F2BA6
:103DF0007ADCDFF824B1494BDBF800201B68013284
:103E00002B4404EB090A00F02F8103F580530F3394
:103E100023F47F6828F00F084146304600F006FA88
:103E2000411C024600F0EF80824500F2EA803C4BE4
:103E3000196841440846196000F04981DBF8001018
:103E4000019301311BBFA2EB0A0A5044CBF80020BA
:103E5000186012F0070B00F01181CBF108010A4441
:103E6000CBF5805190440831A1EB0801C1F30B0A56
:103E700051463046009200F0D9F9421CDDE900239A
:103E800000F04B81801A00EB0A08196848F0010025
:103E90005144BC42BA601960506000F02481B9F10D
:103EA0000F0F40F222814FF0050E6068A9F10C0C53
:103EB0002CF0070C00F0010040EA0C006060BCF13F
:103EC0000F0F04EB0C00C0E901EE00F22E81144646
:103ED0005068144B1A688A4238BF1960124B1A682E
:103EE0008A4238BF196090E0621943F0010345F03F
:103EF000010565603046BA600834536000F090F9FF
:103F0000204603B0BDE8F08FD9681A44A2E600BF8E
:103F1000380400204004002040080020300C00201D
:103F2000000C0020280C00202C0C0020B2F5206F83
:103F30004FEA52235FD3142B00F2B18003F15C01EE
:103F4000C9005B33781879580838884200F08F80B0
:103F50004B6823F00303934202D989688842F7D162
:103F6000C8687A68C4E902108460CC60D7E6142B74
:103F700059D9542B00F29B802B0B03F16F0C03F1EA
:103F80006E044FEACC008FE60134A30700F108006D
:103F90007FF4D8AE53E0444642445368D8F80C103E
:103FA00043F00103536054F8083F3046D9608B60FA
:103FB00000F036F9F6E64FEAD50C05F108023CE6CA
:103FC00022445368304643F00103536000F028F95F
:103FD0000834E7E6611945F00105656043F0010525
:103FE000C7E904113046C1E902EE4D60A35000F06C
:103FF00017F90834D6E6930903F13901C9003833BB
:10400000A0E7BC425ED0BC68606820F0030845456C
:10401000A8EB050302D80F2B3FF766AF304600F040
:10402000FFF80024BEE603F15C0C03F15B044FEAE9
:10403000CC0039E659F808394B4540F095801CF022
:10404000030F0CF1FF3CF5D17B6823EA01037B6091
:10405000490099423FF6C3AE11B9C0E649000434A5
:104060001942FBD0A44669E603F11008D4E6012208
:104070009B109A407B681A437A6073E702EB080151
:104080004942C1F30B0A51463046009200F0CEF887
:10409000431CDDE900237FF4F5AEDA46F5E6542B48
:1040A00026D8130B03F16F01C9006E334AE7B3F54D
:1040B000AA7F26D8EB0B03F1780C03F177044FEAC3
:1040C000CC00F1E5294B186840441860B6E6CAF305
:1040D0000B0CBCF1000F7FF4B1AEBC68C84448F0D3
:1040E00001006060F5E61446F3E60123536095E7AE
:1040F000B3F5AA7F24D8D30B03F17801C900773335
:1041000020E740F25452934224D8AB0C03F17D0CCB
:1041100003F17C044FEACC00C6E5ABF1080BD844B0
:104120004FF0000AA8EB0208AFE604F108013046A0
:10413000009303F05DF9BC68009B60681968C8E6ED
:1041400040F254518B420BD8930C03F17D01C9000E
:104150007C33F7E64FF47E704FF07F0C7E24A3E5AE
:104160004FF47E717E23EDE67B6871E7000C002042
:10417000830730B548D0541E002A3FD00346CAB248
:1041800001E0013C3AD303F8012B9D07F9D1032C40
:104190002DD9CDB245EA05250F2C45EA054536D97E
:1041A000A4F1100222F00F0C03F1200EE6444FEAB6
:1041B000121C03F1100242E9045542E90255103283
:1041C0007245F8D10CF1010214F00C0F03EB02124E
:1041D00004F00F0C13D0ACF1040323F003030433F9
:1041E000134442F8045B9342FBD10CF003042CB15E
:1041F000CAB21C4403F8012B9C42FBD130BD64467B
:104200001346002CF4D1F9E703461446BFE71A46DB
:10421000A446E0E7014803F017BA00BF380C0020BD
:10422000014803F013BA00BF380C0020002238B553
:10423000064D044608462A60FDF74EF8431C00D0A0
:1042400038BD2B68002BFBD0236038BD440C002008
:104250002DE9F043694C0E46D4F800801746044619
:104260001D4683B0B8F1000F03D0D8F83830002BCA
:1042700077D0022F05D0012F00F2AC80002DC0F2C4
:10428000A980636EDA0752D52146404602F084FFCA
:10429000216B41B104F14003994202D0404603F042
:1042A000A7F8002323630023B4F90CC0A3611CF01A
:1042B000800F636064D12CF44A6C2CF0030C022F45
:1042C000A4F80CC06AD001AB214640466A4603F010
:1042D0002FFAA3891843A081002D2FD0002E2ED0B5
:1042E000D8F83830002B38D0009BC4E90465AB42C5
:1042F000B4F90C3026601CBF43F40063A381012F86
:1043000004BF43F00103A3819AB213F008032CD039
:10431000D1075DD500216D42A561656EA16015F0E4
:10432000010527D00025284603B0BDE8F083A38906
:104330009B05A9D4A06D03F087F9A5E7009D284649
:10434000FFF762FC0646002847D0A38943F08003AC
:10435000A381D8F83830002BC6D1404602F050FF78
:10436000C2E7404602F04CFF83E7A360656E15F09C
:104370000105D7D1930524D5284603B0BDE8F083C5
:104380004046216903F034F8B4F90CC0022F2CF434
:104390004A6C2CF0030CA4F80CC094D10025002129
:1043A000012204F1430323602361636E4CF0020C8D
:1043B000D807A4F80CC0A1606261DDD41CF4007FB2
:1043C000DAD1A06D03F042F9284603B0BDE8F083CE
:1043D000A560CBE74FF0FF35CEE7DDF80090A945AB
:1043E00004D04846FFF710FC064620B94FF0FF35D1
:1043F000B4F90CC0D3E74D46A7E700BF0C0000207E
:104400000EB430B504466FF000459CB00B4A1FABAC
:104410000B49059253F8042B086802A9CDE9013431
:1044200007950495069400F00DF80022029B1A707F
:104430001CB0BDE8304003B0704700BF0802FFFF6A
:104440000C0000202DE9F04FD5B00C460C919146A0
:104450000E930A9003F0F0F803681846179303F0E0
:1044600001FEA3891690190603D52369002B00F0DD
:104470008F8700242BAB224698464D46CDE9294430
:104480002893129400230024CDE914342B78CDE92D
:104490001922CDE91B2218920892002B00F0CE8140
:1044A000AA4604E01AF8013F002B00F00981252BF1
:1044B000F8D1BAEB050640F007819AF80030002BDE
:1044C00000F0BC8100234FF0FF324FF02B09202475
:1044D0001F469AF8016007920AF1010A8DF88330AD
:1044E00009930AF1010AA6F120035A2B00F2208158
:1044F000DFE813F0CA021E011E01C5021E011E01E3
:104500001E01A3021E011E016A00F3021E014702E2
:10451000D9021E01D4025B005B005B005B005B0004
:104520005B005B005B005B001E011E011E011E01A3
:104530001E011E011E01B0011E010B027A00B00116
:10454000B001B0011E011E011E011E019E021E01CE
:104550001E01B6001E011E011E0119021E014C02A1
:104560001E011E013F071E011E011E011E011E012C
:104570001E011E011E01B0011E010B027C00B001D4
:10458000B001B00191027C0075001E0184021E0181
:104590007002B8005E0275001E01190272001C074D
:1045A0001E011E011F071E0172000022A6F130032A
:1045B0001AF8016B02EB820203EB4202A6F1300310
:1045C000092BF5D909928EE70E9B53F8042B002A8C
:1045D00009920E93C0F2D2819AF8006081E79AF8AE
:1045E000006047F020077CE747F01007BA060E9BF3
:1045F00040F17D81073323F007031A465B6852F8C8
:10460000084B99460E92002BC0F27F85079B013321
:1046100001F0398054EA090327F0800B00F005858A
:104620000A2C79F1000380F0938701235F46303430
:104630008DF84F410B930DF24F15079A0B990023FC
:104640008A42B8BF0A4606929DF883200D930F93C5
:1046500013931093002A7CD0069B0133069378E0D5
:1046600047F0100717F0200900F032810E9B073346
:1046700023F00703D3F8049053F8084B0E9300235C
:1046800027F4806B00228DF88320079A511C00F0DC
:104690002A8254EA09012BF0800740F02382002A85
:1046A00041F02B80002B40F0C5841BF001030B93DD
:1046B00000F0548530230DF24F158DF84F31BCE7D3
:1046C000BAEB050600F0BA802A9BC8E900563344CD
:1046D0002A93299B0133072B299305DC08F108084D
:1046E000089B33440893E8E60C990A9828AA03F03B
:1046F0001BFD80B90DF1AC08F2E70C990A9828AAC5
:1047000003F012FD002800F08A800D9B1BB10D996B
:104710000A9802F06DFE0C9B9B8913F0400F089BDA
:1047200018BF4FF0FF330893089855B0BDE8F08FDD
:10473000002E00F08380012300228DF8EC600693A8
:104740003BAD8DF883200B930D9207920F9213923D
:10475000109217F0020302D006990231069117F069
:10476000840B07D109990698A1EB0009B9F1000F54
:1047700000F336832A9C82B10122C8F80420299ACA
:10478000013401320DF18301072A2A942992C8F8D5
:10479000001000F3698308F108087BB10223C8F810
:1047A0000430299B0234013321AA072B2A94299330
:1047B000C8F8002000F36C8308F10808BBF1800FF3
:1047C00000F02E82079B0B9AA3EB020BBBF1000FAC
:1047D00000F37182FB0500F1C5810B9BC8F8005006
:1047E0001C44C8F80430299B2A940133072B2993D1
:1047F00000F3EA8208F108087B0705D5099B069AB1
:104800009D1A002D00F35083DDE9083206998A4293
:10481000ACBF9B185B180893002C7FF46EAF00238D
:1048200029930D9B1BB10D990A9802F0E1FD5546A5
:104830000DF1AC082B78002B7FF432AE2A9B002BB5
:104840003FF469AF0C9C0A98214628AA03F06CFC3F
:10485000A38962E70E9B073323F00702F2E80234D4
:10486000CDE91434DDE9143424F0004499461846A7
:104870000E9221464FF0FF32B64BFCF735F9002877
:1048800040F09684484621464FF0FF32B14BFCF78A
:104890000DF9002840F08C84DDE91401002200238A
:1048A000FCF7FAF8002840F0A6879DF88320002145
:1048B0000320A94DA94B27F080070D910690472EA4
:1048C000C8BF1D4607910B900F9113911091C1E63F
:1048D00017F0100340F0628417F0400200F07B876D
:1048E0000E9A994652F8044B0E92A4B2C7E653F8BA
:1048F000044B0E93FB0600F141847D0640F13B849E
:1049000044F3C0394B4624B27DE6012000220E9BC1
:10491000069053F8041B3BAD8DF883208DF8EC1006
:104920000E930B9010E74FF000090E9C079B54F874
:10493000045B8DF88390002D00F0EE865A1C00F089
:1049400060851A464946284602F022FF0D9000284D
:1049500001F09E800D9B9DF883205B1B0B9323EA47
:10496000E373CDF81C900E940693CDF83490CDF8F7
:104970003C90CDF84C90CDF840906BE6099B5B42A3
:1049800009939AF8006047F00407AAE547F0100B76
:104990001BF0200900F0AA830E9B073323F00703C6
:1049A0001A4652F8084BD3F804900E92012369E698
:1049B000302278260E9B8DF8842053F8044B684AE9
:1049C0000E934FF00009022347F0020B8DF885602B
:1049D000189257E6BD0600F1D683FC0600F19386D7
:1049E000780600F15D87B90540F18D860E9B089928
:1049F00053F8042B554611700E931BE79AF800608C
:104A00006C2E03BF9AF8016047F020070AF1010AF3
:104A100047F0100765E59AF80060682E03BF9AF822
:104A2000016047F400770AF1010A47F0400758E5B2
:104A30009AF8006047F0080753E50A9E304602F0F6
:104A4000FBFD436818461B9303F00CFB03463046FE
:104A50001C931E4602F0F0FD83681993002E3FF46C
:104A6000BBAD199B002B3FF4B7AD199B1B78002BF6
:104A70003FF4B2AD9AF8006047F4806731E59AF8E8
:104A8000006047F001072CE59DF88330002B7FF490
:104A9000A3AD9AF800608DF8834022E59AF8006093
:104AA00047F080071DE5524612F8016B2A2E01F0EF
:104AB000EB81A6F13003092B924698BF002201F248
:104AC00003801AF8016B02EB820203EB4202A6F1AB
:104AD0003003092BF5D9079205E59AF800608DF8A7
:104AE0008390FEE4BB46012B3FF49AAD022B54ADFC
:104AF00012D1189A04F00F03D35C240944EA097414
:104B00004FEA191905F8013D54EA0903F2D154ABF3
:104B10005B1B5F460B9390E504F00703E40844EA4F
:104B200049744FEAD909303354EA09012A4605F895
:104B3000013DF1D11BF0010FE9D0302BE7D030233C
:104B4000023A05F8013C54AB9B1A5F4615460B939D
:104B500073E500BFFFFFEF7F00A5000804A5000874
:104B600010A50008652E40F3E980DDE9140100225C
:104B70000023FBF787FF002800F0D2810123C8F84B
:104B80000430299BBF4A01330134072B2A9429930F
:104B9000C8F8002000F37A8508F10808229B129AD1
:104BA000934280F2D782169B179A1C44C8E90023CF
:104BB000299B2A940133072B299300F3DD8308F105
:104BC0000808129B5D1E002D7FF716AE102D41F3D5
:104BD0004181DFF8B492224649461026B946299B06
:104BE0000F46DDF828B00C9C05E008F10808103DE0
:104BF000102D40F3588501331032072BC8E9007699
:104C0000CDE92932F1DD2146584628AA03F08CFA75
:104C100000287FF47AADDDE929320DF1AC08E6E732
:104C2000099B069AA3EB020BBBF1000F7FF7CAADFD
:104C3000BBF1100F41F30580DFF84C92414620464E
:104C4000A8464C461023299A0C9DDDF8289006E0D2
:104C5000ABF1100BBBF1100F01F1080119DD0132AE
:104C60001030072AC1E90043CDE92920F0DD2946AB
:104C7000484628AA03F058FA00287FF446ADDDE93B
:104C80002920ABF1100BBBF1100F4FF010032BA933
:104C9000E5DC4546A1468846044601325C44072AC5
:104CA000CDE92924C8F80090C8F804B000F31885AD
:104CB00008F1080886E5BBF1100F40F39785DFF88F
:104CC000C89141462046A8464C461023299A0C9D7F
:104CD000DDF8289006E0ABF1100BBBF1100F01F1ED
:104CE000080119DD01321030072AC1E90043CDE97E
:104CF0002920F0DD2946484628AA03F015FA0028A5
:104D00007FF403ADDDE92920ABF1100BBBF1100FEF
:104D10004FF010032BA9E5DC4546A1468846044622
:104D200001325C44072ACDE92924C8F80090C8F86C
:104D300004B000F3CE8108F108084BE5129B012B6B
:104D400040F37E810123299E01341E44072EC8F8BA
:104D500000502A94C8F80430299600F3E18108F144
:104D60000808169B0136179A1C44072EC8E9002331
:104D7000CDE9296400F3E18108F108080022DDE9AA
:104D800014010023FBF77EFE002840F07681129B81
:104D90000136013B01351C44072EC8F80050299606
:104DA000C8F804302A9400F35B8108F108081A9BC4
:104DB00001361C44C8F80430072E24ABCDE9296421
:104DC000C8F800307FF716AD0C990A9828AA03F0AE
:104DD000ABF900287FF499AC2A9C0DF1AC080BE5E7
:104DE000B9F1100F40F35086DDE929214046CDE9A5
:104DF0001D36B84610244F460C9EA9460A9D04E075
:104E0000103F102F00F1080016DD01321F4B10314A
:104E1000072AC0E90034CDE92921F1DD31462846D1
:104E200028AA03F081F900287FF46FACDDE929217D
:104E3000103F102F2BA8E8DC4D46DDE91D36B946A2
:104E40004746804609EB010401321049072ACDE9A3
:104E50002924C8F80490C8F8001000F3C3839DF813
:104E6000832008F1080886E40C990A9828AA1D9363
:104E700003F05AF900287FF448AC2A9C1D9B0DF1E1
:104E8000AC088AE440A5000854A5000844A5000821
:104E90000C990A9828AA03F047F900287FF435AC4A
:104EA0002A9C0DF1AC0889E4102D40F3C48610262D
:104EB000299B0A9FDDF8309004E0103D102D08F189
:104EC000080817DD0133B84A1034072BC8E900265B
:104ED000CDE92934F1DD4946384628AA03F024F902
:104EE00000287FF412ACDDE92934103D102D0DF1BE
:104EF000AC08E7DC0133AC4A2C44072BCDE929345C
:104F0000C8F80450C8F800207FF77EAC0C990A98C6
:104F100028AA03F009F900287FF4F7AB2A9C73E470
:104F20002299002940F36F83DDF84090129B994548
:104F3000A8BF9946B9F1000F0BDD299B4C44013302
:104F4000072BC8E900592A94299300F31D8508F11D
:104F50000808109EB9F1000FA8BFA6EB0906002EA5
:104F600000F32582DDF840B07805AB4400F15F82A4
:104F7000229B129A934202DBF90740F17684169A3B
:104F800017991444C8E90012299A2A940132072A71
:104F9000299200F3138508F10808129AAE18A6EBBF
:104FA0000B06D51AAE42A8BF2E46002E0DDD299B5A
:104FB00034440133072BC8F800B0C8F804602A94C1
:104FC000299300F3718508F10808002EA8BFAD1BD6
:104FD000002D7FF711AC102D40F33C87DFF8CC910A
:104FE000224649461026B946299B0F46DDF828B0CF
:104FF0000C9C05E008F10808103D102D40F3538388
:1050000001331032072BC8E90076CDE92932F1DDF2
:105010002146584628AA03F087F800287FF475AB8C
:10502000DDE929320DF1AC08E6E7079B002B7FF4A0
:10503000FCAA5F46002354AD07930B93FFF7FDBA1C
:10504000FA073FF57FAE0123299E01341E44072E47
:10505000C8F800502A94C8F8043029967FF7A5AE06
:105060000C990A9828AA03F05FF800287FF44DAB4A
:10507000DDE929640DF1AC0899E6129B5D1E002D57
:105080007FF795AE102D40F3DF86224607974FF04D
:10509000100BDFF818910A9C0C9F05E008F1080836
:1050A000103D102D40F37F8301361032072EC8E9E2
:1050B000009BCDE92962F1DD3946204628AA03F09C
:1050C00033F800287FF421ABDDE929620DF1AC084B
:1050D000E6E70C990A9828AA03F026F800287FF43E
:1050E00014AB2A9C0DF1AC08FFF774BB1BF0100346
:1050F0000E9A3AD11BF0400133D052F8044B994636
:105100000E920123A4B2FFF7BDBA2D2364428DF89D
:105110008330BB464FF0010369EB4909FFF7B5BA8D
:105120000C990A9828AA02F0FFFF00287FF4EDAA44
:10513000DDE929640DF1AC0813E60C990A9828AA58
:1051400002F0F2FF00287FF4E0AADDE929640DF106
:10515000AC0813E6FD077FF54FAB24E554ADFFF730
:105160006CBA1BF4007940F08A8352F8044B012397
:105170000E92FFF787BAB80500F19B834FEAE479F6
:105180004B46FFF740BA0E9B089853F8041BC21712
:105190005546C1E900020E93FFF74CBB0E9B53F836
:1051A000044B0E93FFF76BBA44A5000854A5000802
:1051B000DDE9140102460B46FBF796FC002840F09F
:1051C000E985612E00F07D85412E00F08B84079BE0
:1051D000013300F08F8326F02003472B069300F065
:1051E0008F85DDE9141247F480730F931346002B6B
:1051F000C0F2B0850B9300238B461D930D93069B45
:10520000462B00F0E983452B00F0468507990B9B60
:1052100001910221009126A9049123A9039122A9B9
:105220005A460A98029100F0BFFF069B0546472B9D
:1052300040F03A8617F0010FB9460F9F40F0FE8408
:10524000269B5B1B1293069B472B00F06E83069BED
:10525000462B00F0F083229B1093109B069A013B93
:10526000412A229300F0BB850021F2B2002B8DF879
:105270009020B6BF2D222B22109B8DF89120B8BF15
:10528000C3F10103092B40F39B850DF19F0C62468E
:10529000B64F1C46104687FB0312D917C1EBA2017B
:1052A00001EB8102A3EB42023032632C00F8012CA7
:1052B0000B4600F1FF32ECDC3033811EDBB28C4553
:1052C00002F8013C40F2F9850DF1920101E012F87B
:1052D000013B944501F8013BF9D10DF1A1030DF11A
:1052E00092021B1A134424AA9B1A1A93129B1A9A0D
:1052F000012B1A440B9240F381850B9B169A1344A1
:105300000B9300230B9A29F4806722EAE27247F498
:1053100080770F930692139310931D9B002B40F000
:105320002C839DF883200793FFF794B9BB46FFF7C2
:105330002FBB8F4B189317F0200900F0F5800E9BC0
:10534000073323F00703D3F8049053F8084B0E9368
:10535000F80709D554EA090306D030238DF8856093
:1053600047F002078DF88430022327F4806BFFF7A3
:1053700089B9804B1893DEE70C990A9828AA02F0A5
:10538000D3FE00287FF4C1A92A9C0DF1AC0818E4D3
:1053900040210A98FEF740FC0C9B18601861002819
:1053A00000F0978540230C9A5361FFF762B8102EE6
:1053B00040F37685DFF8C091424648462146A8462C
:1053C000B9464FF0100B0746299B0A9C0C9D04E040
:1053D0000832103E102E40F3138201331031072B98
:1053E000C2E9007BCDE92931F2DD2946204628AA11
:1053F00002F09AFE00287FF488A9DDE929312BAA62
:10540000E7E72846CDF81C900E9402F02BFE20EA28
:10541000E0739DF883200B90CDF83490CDF83C904C
:10542000CDF84C90CDF840900693FFF713B9129B3E
:105430004246DDF84C80EB185E460793CDF82CA071
:1054400010972146199FDDF87090DDF828A0DDF84F
:1054500030B00F9B1395B8F1000F2ED083BB013FE6
:1054600008F1FF381B9B4944C2E90039299B2A9166
:105470000133072B299360DC0832079B38789B1B8C
:105480008342A8BF0346002B1C460BDD2998194414
:1054900001300728C2E900632A91299000F31481A2
:1054A00038780832002CB4BF0546051B002D0BDCF4
:1054B00006440F9BB8F1000FD0D1002B00F02682DC
:1054C0000F9B013B0F93CDE7102D40F39D841024DB
:1054D000299804E0103D102D02F1080216DD01307C
:1054E000254B10310728C2E90034CDE92901F1DD4F
:1054F0005946504628AA02F017FE00287FF405A955
:10550000DDE92901103D102D2BAAE8DC01301A4BF2
:1055100029440728CDE929015560136000F3418231
:10552000387808320644C4E717F0100300F0A08072
:105530000E9B53F8044B0E930AE75946504628AA8F
:1055400002F0F2FD00287FF4E0A82A992BAA94E744
:1055500000230BF480620696CDF82CA0CDF83480A1
:1055600092461E46DDF8648054AF14E067666666B6
:1055700010A5000824A5000854A500080023204613
:1055800049460A22FBF7EEFA0A2C79F100031BD3F5
:10559000044689462F4620460A2200234946FBF747
:1055A000E1FA30327D1E013607F8012CBAF1000F06
:1055B000E4D098F800309E42E0D1FF2EDED00A2CD5
:1055C00079F1000380F0308154AB5B1BDDF82CA037
:1055D000CDF8648012965F46069EDDF834800B930A
:1055E000FFF72BB80C990A9828AA1D9302F09CFD8E
:1055F00000287FF48AA89DF883202A9C1D9B0DF12A
:10560000AC08FFF7B8B80123C8F80430299BBC4A9E
:1056100001330134072B2A942993C8F8002000F3A2
:10562000178108F10808002940F08680129A07F0D7
:10563000010313433FF4E0A8169B17991A19C8E910
:105640000013299B2A920133072B299300F33781FA
:1056500008F10808129901338C18072BCDE9293479
:10566000C8F80050C8F804107FF7C4A8FFF7ACBB17
:1056700017F0400200F0A5800E9A994652F8044BAC
:105680000E92A4B264E6BB46FEF7CABF0C990A9814
:1056900028AA02F049FD00287FF437A82A9C0DF1C2
:1056A000AC08FFF77BBA14463A464F4691460133A1
:1056B0002C44072BC8F80090C8F80450CDE92934D1
:1056C0007FF798A8FFF780BB5946504628AA02F0FA
:1056D0002BFD00287FF419A838782A992BAAE1E637
:1056E0000C990A9828AA02F01FFD00287FF40DA843
:1056F0002A9C0DF1AC08FFF765B8012BBB467FF47F
:10570000F5A9FEF792BF0E9B089953F8042B554656
:1057100011600E93FFF78EB8062B294628BF06238B
:105720002A4607950D950693764D0E940B930F918F
:1057300013911091FEF78EBF169B17981A19C8E99E
:105740000003299B2A920133072B299300F3B7808A
:1057500008F108080029BFF67DAF4E42103180F2F3
:10576000A98341461024A846DFF89C91DDF828B0B3
:105770000C9D04E00831103E102E40F3A782013347
:105780001032072BC1E90094CDE92932F2DD294618
:10579000584628AA02F0C8FC00287EF4B6AFDDE91E
:1057A00029322BA9E7E71446079F01362C44072E20
:1057B000CDE92964C8F80090C8F804507FF7F5AA2D
:1057C0004EE417F400790E9B66D053F8044B9146D3
:1057D0000E93E4B2BCE517F400790E9B57D053F852
:1057E000044B91460E93E4B2FEF749BF299ADFF8C5
:1057F0001891FFF795BA2D228DF88320FFF757B83F
:10580000454690463A460C464F469146013334444D
:10581000072BCDE92934C8F80090C8F804605CDC97
:1058200008F10808FFF79EBB1C9B1B99ED1A1A464E
:10583000284602F045FC98F801300BB108F1010848
:10584000204649460A2200230026FBF78BF99FE6F3
:105850000C990A9828AA02F067FC00287EF455AF3C
:1058600022992A9C0DF1AC08DDE6129AAE18A6EB3F
:105870000B06D51AAE42A8BF2E46FFF7A6BB52F8BC
:10588000044B894601230E92E4B2FEF7FBBE53F8A7
:10589000044B0E93FEF7F3BE53F8044B0E9357E5FB
:1058A0000E9B089953F8042B554611800E93FEF772
:1058B000C1BF44F3C0194B4664B2FEF7A4BE0C99B5
:1058C0000A9828AA02F030FC00287EF41EAFDDE919
:1058D000293222990DF1AC083CE70C990A9828AAC4
:1058E00002F022FC00287EF410AF2A9C0DF1AC08D7
:1058F000FFF738BB0623079326F02003069370E4D6
:1059000040A5000838A5000854A50008DDE91235B7
:10591000EB189E42B346199790460C4628BF9B460B
:10592000DDF82CA0109FFFF723BB229BDA1C1093FD
:1059300002DB079A934204DD023E26F02003069321
:105940008BE4109B129A9342C0F2C28019F0010FAF
:1059500000F01D82169A13440B9319F4806F00F027
:105960001482109B6726002B76DC0B9B23EAE373E3
:10597000069300230F931393CFE42D2200238DF879
:1059800083200793FEF768BE0C990A9828AA02F0B4
:10599000CBFB00287EF4B9AE2A9C0DF1AC08FFF7D2
:1059A000D8BA5946504628AA02F0BEFB00287EF419
:1059B000ACAE38782A992BAA06447AE50C990A9855
:1059C00028AA02F0B1FB00287EF49FAE229B2A9CFD
:1059D0000DF1AC08FFF7E1BA07990B9B0191032188
:1059E000009126A9049123A9039122A95A460A9855
:1059F000029100F0D9FB03780546302B00F01682A7
:105A0000229B079AB94613440F9FEC185846002270
:105A100000230B99FBF736F808B1234611E4269BC7
:105A2000A342BFF40EAC30215A1C26921970269B5B
:105A30009C42F9D805E4229A002A109240F30E8283
:105A4000079909F001030B4340F07E816626109B05
:105A50000B9319F4806F88D019990B78FF2B00F005
:105A600025820024109A204604E001300131FF2BEA
:105A700000F05981934280F25681D21A4B78002B64
:105A8000F3D10B780134F2E7DDE92921FFF7DAB928
:105A9000079B9DF883200E9406930B9307900F901D
:105AA00013901090FEF7D6BD0C990A9828AA02F020
:105AB0003BFB00287EF429AE229D129B2A9C0DF10F
:105AC000AC085D1BFFF781BA00230793FEF70BBDFF
:105AD000129B169A9A18109B0B92002B40F385810B
